:020000040800F2
:1000000000000220715D0008D9010008DB01000832
:10001000DD010008DF010008E10100080000000028
:10002000000000000000000000000000E3010008E4
:10003000E501000800000000E7010008E9010008F0
:10004000C15D0008C15D0008C15D0008C15D000818
:10005000C15D0008C15D0008315D00083F5D00081A
:10006000C15D0008C15D0008C15D0008C15D0008F8
:10007000C15D0008C15D0008C15D0008C15D0008E8
:10008000C15D0008C15D0008C15D0008C15D0008D8
:100090006D120008C15D0008C15D0008215D000807
:1000A000C15D0008C15D0008C15D0008C15D0008B8
:1000B0004D5D0008C15D0008C15D0008C15D00081C
:1000C000C15D0008C15D0008C15D0008C15D000898
:1000D000C15D0008C15D0008C15D0008C15D000888
:1000E000C15D0008C15D0008C15D0008C15D000878
:1000F000C15D0008C15D0008C15D0008C15D000868
:10010000C15D0008C15D0008C15D0008C15D000857
:10011000C15D0008C15D0008C15D0008C15D000847
:10012000C15D0008C15D0008C15D0008C15D000837
:10013000C15D00080000000000000000C15D000873
:1001400091120008C15D0008C15D0008C15D000892
:10015000C15D0008C15D0008C15D0008C15D000807
:10016000C15D0008C15D0008C15D0008C15D0008F7
:10017000C15D0008C15D0008000000000000000033
:08018000C15D0008C15D00082B
:1001880010B5054C237833B9044B13B10448AFF3C9
:1001980000800123237010BDA80600200000000085
:1001A8007060000808B5034B1BB103490348AFF35F
:1001B800008008BD00000000AC0600207060000848
:1001C800034613F8012B002AFBD1181A013870478F
:1001D8007047FEE7FEE7FEE7FEE7704770477047A7
:1001E8007047000040F0BF6040F40030014BD86019
:1001F800704700BF00ED00E0C378FBB1154BDB682A
:10020800DB43C3F30222C2F10401C9B20F23134135
:1002180042788A40D2B281780B4013431B01DBB28B
:1002280002780D490A4482F80033037803F01F006E
:100238005B090122824041F823207047037803F0CC
:100248001F015B0901228A402033034941F823201A
:10025800704700BF00ED00E000E100E008B50C4B7E
:1002680098420AD001214FF0806000F0EBFA00219B
:100278004FF0806000F0E6FA08BD01214FF00070F1
:1002880000F0E0FA00214FF0007000F0DBFAF3E72D
:1002980000640040036823F002030360036843F02E
:1002A800010303600023426812F0010F05D14FF6E5
:1002B800FF72934201D00133F5E7436813F0010F51
:1002C8006BD08B79012B3BD0036823F0800303604C
:1002D800CB79012B39D0036823F0400303600B7AF4
:1002E800012B37D0036823F0200303604B7A012BDE
:1002F80035D0036823F0100303608B7A012B33D0C9
:10030800036823F008030360CB7A012B31D003681C
:1003180023F0040303608A78CB781B0643EA8273D0
:100328000A7943EA02434A7943EA02530A88013ABE
:100338001343C361036823F00103036000231EE035
:10034800036843F080030360C2E7036843F0400397
:100358000360C4E7036843F020030360C6E703684B
:1003680043F010030360C8E7036843F00803036021
:10037800CAE7036843F004030360CCE7013342682B
:1003880012F0010F03D04FF6FF729342F6D1436883
:1003980013F0010F03D000207047002070470120A0
:1003A8007047000010B5837A012202FA03F33F4A2E
:1003B800D2F8001241F00101C2F80012D2F81C1262
:1003C8006FEA030C21EA0301C2F81C12027BD2B9BE
:1003D800364AD2F80C120CEA0101C2F80C12B0F835
:1003E80006E04488817A44EA0E44483142F83140B4
:1003F8008488018890F80AE041EA04410EF1480E29
:1004080002EBCE025160027B012A20D0C27A002A78
:1004180037D12649D1F804220CEA0202C1F8042295
:10042800028932B92149D1F814220CEA0202C1F832
:1004380014220289012A2BD0427B012A2FD01B4A81
:10044800D2F8003223F00103C2F8003210BD174A77
:10045800D2F80C121943C2F80C12B0F800E0448824
:10046800817A44EA0E44483142F83140B0F804E059
:10047800C188847A41EA0E41483402EBC4025160D3
:10048800C4E70A49D1F804221A43C1F80422C7E78D
:100498000649D1F814221A43C1F81422CCE70349BB
:1004A800D1F81C221343C1F81C32C8E7006400408D
:1004B80000238371C371037243728372C3728370A2
:1004C800C370032303710223437101230380704720
:1004D8000346826812F0806F09D1826812F0006FBB
:1004E8004FD1826812F0805F5BD0022000E00020CC
:1004F80070B5864600F1180212019C5804F00104F8
:100508009C500A7A002A3ED100F1180212019C5828
:100518004D7A0E6845EA46552C439C508A7A02F07B
:100528000F028A720EF118024FEA021C03EB021244
:10053800546824F00F04546054688D7A2C43546036
:100548008C7B4A7B120442EA04620C7B42EA042256
:10055800CC7A224303EB0E1ECEF888218C7C4A7C91
:10056800120442EA04620C7C42EA0422C97B0A4370
:10057800CEF88C2153F80C2042F0010243F80C20ED
:1005880070BD0120B4E700F1180424011D594E681C
:1005980042EAC60291F809C042EA0C022A431A51FB
:1005A800BCE70420704710B401F11B031B01C358BA
:1005B80003F004031372002B3FD101F11B031B014D
:1005C800C3585B0D136001F11B031C0100EB0313FF
:1005D800045904F0020454725C6804F00F04947225
:1005E8005B681B0AD37400EB0113D3F8B841D472CB
:1005F800D3F8B841240A1473D3F8B841240C5473BF
:10060800D3F8B841240E9473D3F8BC41D473D3F80B
:10061800BC41240A1474D3F8BC414FEA144C82F844
:1006280011C0D3F8BC311B0E937469B9C36843F089
:100638002003C3605DF8044B704701F11B031B01E5
:10064800C358DB085360BEE7036943F02003036126
:10065800F0E71AB14369194341617047436923EAD6
:1006680001014161704700008379002B36D010B436
:10067800204B1A68016822EA01021A605A68016868
:1006880022EA01025A60027902F1804202F59E32A2
:1006980011680468214311609A68016822EA01021E
:1006A8009A60DA68016822EA0102DA604379102B5D
:1006B8000AD003F1804303F59E331A6801680A43A0
:1006C8001A605DF8044B70470A4B9A6801680A4340
:1006D8009A60DA6801680A43DA60F2E7037903F19D
:1006E800804303F59E331A68016822EA01021A6002
:1006F800704700BF003C0140014B5861704700BF84
:10070800003C014000230F2B4ED830B516E0C268DC
:100718001FFA83FE4FEA4E044FF0030E0EFA04FE52
:1007280022EA0E02C260C26891F807E00EFA0CFCD9
:1007380042EA0C02C26001330F2B34D801229A40DE
:100748000C68A243F7D104684FEA430C032202FA6B
:100758000CF26FEA020E24EA0202026002680C79C7
:1007680004FA0CF4224302600A79013AD2B2012A4F
:10077800CDD882680EEA0202826082684C7904FA57
:100788000CF42243826044689DB24FF0010E0EFAC9
:1007980005FE24EA0E04446044688A79AA4092B2AD
:1007A80022434260B3E730BD7047018370474183FD
:1007B8007047436959404161704700B501F007032C
:1007C8009B0002FA03FCC908083150F821204FF0B9
:1007D8000F0E0EFA03F322EA030340F8213050F813
:1007E800212042EA0C0240F821205DF804FB0000B9
:1007F80021B1054A136B184310637047024A136B03
:1008080023EA0000106370470038024021B1054A0E
:10081800136C184310647047024A136C23EA0000F3
:10082800106470470038024021B1054A536C1843E0
:1008380050647047024A536C23EA000050647047C2
:100848000038024021B1054A136A18431062704704
:10085800024A136A23EA0000106270470038024017
:1008680021B1054A536A184350627047024A536AD5
:1008780023EA0000506270470038024008B52A4B4E
:1008880098420FD0294B984217D0294B98421FD035
:10089800284B984227D0284B98422FD0274B984274
:1008A80037D008BD01214FF48050FFF7D9FF002150
:1008B8004FF48050FFF7D4FFF3E701214FF4804055
:1008C800FFF7C0FF00214FF48040FFF7BBFFE8E7C8
:1008D80001214FF40040FFF7B5FF00214FF400401D
:1008E800FFF7B0FFDDE701214FF40050FFF7B8FF35
:1008F80000214FF40050FFF7B3FFD2E701214FF476
:100908008010FFF7ADFF00214FF48010FFF7A8FF1C
:10091800C7E701214FF40010FFF7A2FF00214FF4B1
:100928000010FFF79DFFBCE7003001400038004091
:10093800003C004000340140005001400054014098
:100948002DE9F041038803F441520F88B1F8028081
:100958008E88CD880C89B1F80AE0B1F80CC0CB8933
:1009680047EA08073E4335432C434EEA040E4CEA57
:100978000E0C43EA0C0313430380838B9BB223F4CE
:1009880000639BB283830B8A0382BDE8F08129B19F
:1009980003889BB243F040030380704703889BB2EF
:1009A80023F040039BB203807047808980B2704770
:1009B800818170470389194201D0012070470020C6
:1009C8007047000010B401F0030292000F2404FAEB
:1009D80002FC8908084B023153F8214024EA0C0430
:1009E80043F8214053F821409040044343F8214004
:1009F8005DF8044B704700BF0038014008B5584BFC
:100A0800984231D0B0F1804F37D0564B98423DD004
:100A1800554B984243D0554B984249D0544B984235
:100A28004FD0544B984255D0534B98425BD0534BC0
:100A3800984261D0524B984269D0524B984271D03B
:100A4800514B984279D0514B98427FD0504B9842A5
:100A580012D101214FF48070FFF7F4FE00214FF40A
:100A68008070FFF7EFFE07E001210846FFF7F8FE68
:100A780000210120FFF7F4FE08BD01210846FFF719
:100A8800E1FE00210120FFF7DDFEF5E7012102204C
:100A9800FFF7D8FE00210220FFF7D4FEECE7012182
:100AA8000420FFF7CFFE00210420FFF7CBFEE3E789
:100AB80001210820FFF7C6FE00210820FFF7C2FE2B
:100AC800DAE701211020FFF7BDFE00211020FFF713
:100AD800B9FED1E701212020FFF7B4FE0021202034
:100AE800FFF7B0FEC8E701210220FFF7B9FE002199
:100AF8000220FFF7B5FEBFE701214FF48030FFF772
:100B0800AFFE00214FF48030FFF7AAFEB4E70121C1
:100B18004FF40030FFF7A4FE00214FF40030FFF738
:100B28009FFEA9E701214FF48020FFF799FE0021DD
:100B38004FF48020FFF794FE9EE701214020FFF745
:100B480081FE00214020FFF77DFE95E701218020EE
:100B5800FFF778FE00218020FFF774FE8CE700BFC6
:100B6800000001400004004000080040000C004064
:100B78000010004000140040000401400040014003
:100B8800004401400048014000180040001C00409B
:100B98000020004003889BB21B4A904212D002F505
:100BA800806290420ED0B0F1804F0BD0A2F5803217
:100BB800904207D002F58062904203D002F580622D
:100BC800904203D123F070034A8813430F4A90429E
:100BD80008D002F58062904204D023F440739BB29F
:100BE8000A89134303804B68C3620B880385064B4D
:100BF800984203D003F58063984201D18B7A03862B
:100C080001238382704700BF0000014000100040AC
:100C180029B103889BB243F001030380704703881E
:100C28009BB223F001039BB20380704722B18389F2
:100C38009BB21943818170478389C94389B219409E
:100C480081817047C94389B201827047C94389B21B
:100C58000182704730B587B001210846FFF7C8FD0B
:100C680001214FF48040FFF7DFFD00248DF80C4090
:100C78008DF80F404FF48075029502A91248FFF7CE
:100C880041FD08212046FFF79DFE04958DF814408C
:100C98000C238DF8153001258DF8165004A8FFF7A0
:100CA800E3FC4FF4C060FFF79DFA17238DF804307A
:100CB8008DF805408DF806408DF8075001A8FFF71C
:100CC8009BFA07B030BD00BF0000024030B587B0C6
:100CD80001210846FFF78CFD01214FF48040FFF702
:100CE800A3FD00258DF80C508DF80F5001240294B7
:100CF80002A91248FFF706FD29462846FFF762FEBB
:100D080004948DF814500C238DF815308DF8164086
:100D180004A8FFF7A9FC4FF4C060FFF763FA0623A5
:100D28008DF804308DF805408DF806408DF80740A1
:100D380001A8FFF761FA07B030BD00BF000002400C
:100D480030B587B001210846FFF752FD01214FF465
:100D58008040FFF769FD00248DF80C408DF80F40A6
:100D68000225029502A91248FFF7CCFC0121204672
:100D7800FFF728FE04958DF814400C238DF81530E4
:100D880001248DF8164004A8FFF76EFC4FF4C060EC
:100D9800FFF728FA07238DF804308DF805408DF801
:100DA80006408DF8074001A8FFF726FA07B030BDC6
:100DB8000000024008B504210148FFF7F6FC08BD11
:100DC8000000024000B583B001210846FFF710FD7E
:100DD8000423009301238DF8043002228DF80520A6
:100DE80000228DF806208DF8073069460348FFF782
:100DF80089FCFFF7DFFF03B05DF804FB0000024049
:100E080030B587B0134C2046FFF738FD0023ADF806
:100E18000430ADF808300222ADF80A200125ADF8FB
:100E28000C504FF40072ADF80E20ADF81030ADF84C
:100E380012300723ADF814304FF48273ADF8063042
:100E480001A92046FFF77CFD29462046FFF79FFDB4
:100E580007B030BD00380040F0B583B001214FF431
:100E68008040FFF7D3FC01210620FFF7C1FC234E89
:100E780005220A213046FFF7A0FC214D0522022158
:100E88002846FFF79AFC052203212846FFF795FC20
:100E980002248DF804408DF8054000278DF806706F
:100EA8008DF807404FF48063009369463046FFF79A
:100EB80029FC0423009369462846FFF723FC0823EE
:100EC800009369462846FFF71DFC01212046FFF7DD
:100ED8008FFC4FF48073009301238DF804308DF854
:100EE80005408DF806708DF8073069463046FFF7E3
:100EF80009FCFFF785FF03B0F0BD00BF0004024006
:100F08000008024010B5044602210A48FFF752FDC6
:100F18000028F9D021460748FFF74AFD0121054876
:100F2800FFF748FD0028F9D00248FFF73EFDC0B2A0
:100F380010BD00BF0038004010B584B00446012140
:100F48000846FFF763FC4FF08040FFF757FDC820C5
:100F580000FB04F402942923ADF804300024ADF812
:100F68000C40ADF8064001A94FF08040FFF712FE93
:100F780001214FF08040FFF765FE012211464FF036
:100F88008040FFF753FE01214FF08040FFF740FEFD
:100F98004FF4C060FFF726F91C238DF800308DF858
:100FA800014001238DF802308DF803306846FFF7C1
:100FB80023F904B010BD000030B583B001214FF013
:100FC8000070FFF723FC01210846FFF711FC144CC1
:100FD80009220B212046FFF7F0FB09220C212046AD
:100FE800FFF7EBFB4FF48053009302258DF8045074
:100FF8008DF8055000238DF8063001238DF8073051
:1010080069462046FFF77EFB4FF4006300938DF896
:10101800045069462046FFF775FB03B030BD00BF9A
:101028000000024030B583B001214FF08060FFF727
:10103800EDFB01210220FFF7DBFB134C0922052100
:101048002046FFF7BAFB092206212046FFF7B5FB29
:101058004023009302258DF804508DF80550002395
:101068008DF8063001238DF8073069462046FFF7D2
:1010780049FB202300938DF8045069462046FFF76A
:1010880041FB03B030BD00BF0004024010B584B07E
:1010980001214FF00070FFF7B9FB134C2046FFF712
:1010A800DDF801A8FFF704FA00238DF80A308DF85F
:1010B8000B308DF80C308DF80D308DF80E308DF822
:1010C8000F308DF806308DF8073002238DF8083080
:1010D8008DF809300623ADF8043001A92046FFF742
:1010E800D9F804B010BD00BF0064004010B584B04A
:1010F80001214FF00070FFF789FB01214FF080605C
:10110800FFF784FB124C2046FFF7A8F801A8FFF769
:10111800CFF900238DF80A308DF80B308DF80C309C
:101128008DF80D308DF80E308DF80F308DF80630B3
:101138008DF8073002238DF808308DF80930062322
:10114800ADF8043001A92046FFF7A4F804B010BD9B
:101158000068004000B583B04FF4C060FFF742F864
:1011680014238DF8043000238DF8053001238DF801
:1011780006308DF8073001A8FFF73EF803B05DF898
:1011880004FB00B583B04FF4C060FFF72BF8402391
:101198008DF8043000238DF8053001238DF80630D2
:1011A8008DF8073001A8FFF727F803B05DF804FBB6
:1011B80010B584B000238DF80A308DF80B30012467
:1011C8008DF80C40ADF80030ADF80230ADF80430C1
:1011D800ADF80630ADF808308DF80D406846FFF7D9
:1011E800E1F8224602210248FFF733FA04B010BDA5
:1011F8000064004010B584B00E238DF80A30002337
:101208008DF80B3001248DF80C40ADF80030ADF8A6
:101218000230ADF80430ADF80630ADF808308DF87E
:101228000D406846FFF7BEF8224602210248FFF744
:1012380010FA04B010BD00BF0068004008B5FFF701
:10124800BBFEFFF723FFFFF785FFFFF7B1FF08BDE0
:1012580008B5FFF7E7FEFFF749FFFFF792FFFFF733
:10126800C9FF08BD08B5054A00210548FFF79BF9E5
:101278004FF480410348FFF79CFA08BDC4060020DC
:10128800006400400004024008B54FF400510448CF
:10129800FFF78FFA034A00210348FFF784F908BDD6
:1012A80000040240EC06002000680040F0B583B05E
:1012B80001210220FFF79CFA4FF400430093012715
:1012C8008DF8047002248DF8054000268DF806601C
:1012D8008DF80740124D69462846FFF713FA4FF478
:1012E800804300938DF804708DF805408DF80660F2
:1012F8008DF8074069462846FFF704FA4FF4005373
:1013080000938DF804708DF805408DF806608DF80F
:10131800074069462846FFF7F5F903B0F0BD00BF5E
:101328000004024082B00023019300932A4A136804
:1013380043F480331360284B1B6803F40033009395
:10134800019B01330193009B1BB9019BB3F5A04F8F
:10135800F1D1214B1B6813F4003F06D00123009301
:10136800009B012B04D002B0704700230093F7E7DD
:10137800194B1A6C42F080521A6418490A6842F4F0
:1013880040420A609A689A609A6842F400429A60F9
:101398009A6842F4A0529A60114A5A601A6842F058
:1013A80080721A600C4B1B6813F0007FFAD00D4B4B
:1013B80040F205721A60A3F580639A6822F003026E
:1013C8009A609A6842F002029A60034B9B6803F0A5
:1013D8000C03082BF9D1C6E7003802400070004022
:1013E80008544007003C024010B5104CD4F888302F
:1013F80043F47003C4F888300D4B1A6842F00102B8
:101408001A60002199601A6822F0847222F48032EE
:101418001A60084A5A601A6822F480221A60D96051
:10142800FFF780FF4FF00063A36010BD00ED00E000
:1014380000380240103000240023024A1360024A98
:1014480013807047140700208C0A002008B5C38851
:101458001B0B013B072B0DD8DFE803F0040604043F
:1014680004040409042008BD03F0BCF8FBE703F0FA
:101478004FFBF8E70520F6E708B5114B186830B1BF
:10148800002101F09FFD00200D4B186008BD4FF4AE
:10149800807004F0B7FC034678B10A4AD2F800C05D
:1014A80050689168C3F800C05860996092899A8121
:1014B800184603F02DFB0020E8E70720E6E700BF09
:1014C80014070020780A002030B583B004460222B1
:1014D8004FF401710DF1060004F01AFBBDF8060087
:1014E8000440ADF80640074C4FF40005C4F880509E
:1014F80002224FF401710DF1060004F08BFB256008
:1015080003B030BD00E100E030B583B004460222EC
:101518004FF401710DF1060004F0FAFABDF8060067
:101528000443ADF80640074C4FF40005C4F880505A
:1015380002224FF401710DF1060004F06BFB2560E7
:1015480003B030BD00E100E000B583B00023ADF882
:101558000630022240F202510DF1060004F0D8FADA
:10156800BDF8063013F4006F02D113F4805F05D084
:10157800044B00221A7003B05DF804FB014B0122F2
:101588001A70F8E71A07002010B500F58071044CAE
:101598000822C900204604F0BBFA204610BD00BF4F
:1015A8002C07002010B582B04FF48073ADF80630D8
:1015B800C40004F60604022221460DF1060004F0D8
:1015C80029FB022221460DF1060004F0A1FABDF81C
:1015D800063013F4807FF4D002B010BD10B582B08D
:1015E8000023ADF80630C40004F6060402222146A2
:1015F8000DF1060004F00EFB022221460DF1060053
:1016080004F086FABDF8063013F4807FF4D102B0F6
:1016180010BD000038B59E4B1A8842F6FE739A42F8
:1016280040F2278104460020FFF7AEFF4388028876
:1016380013F0010F40F0208112F0010F40F01E81DD
:10164800C18811F0010F3CD0818801F00C000428FA
:1016580001D0162536E011F0020F3DD0212B3DD9DF
:10166800B3F5807F3CD8B2F5805F3BD3B2F5405FDD
:1016780001D3162526E00120FFF786FF034641889F
:10168800028811F0010F40F0FB8012F0010F40F0CA
:10169800F980C08810F0010F71D09B8813F00C0FEF
:1016A8006FD113F0020F6ED021296ED9B1F5807F6A
:1016B8006DD8B2F5805F6CD3B2F5405F6BD2002570
:1016C80000E016250DB9032C0ED80DB9022C64D8EC
:1016D800002D00F0C980CDE01625F3E71625F1E7C7
:1016E8001625EFE71625EDE76A4B01221A7003204D
:1016F800FFF74AFF4288018812F0010F40F0C480CA
:1017080011F0010F40F0C280C38813F0010302D02A
:10171800002A00F0958053B35F4B1B88934201D099
:101728001E25D5E7002B00F08D80442A00F28C801E
:10173800838813F00C0F40F08980584A1278022AE7
:1017480008D0022A00F08480554A12888A4207D0BD
:101758001E25BDE7B1F5805FF3D3B1F5405FF0D248
:1017680013F0020FB1D04B4B00221A70ADE7002ADC
:1017780070D1494B1B88002BA7D01E25A8E716253A
:10178800A3E71625A1E716259FE716259DE7162549
:101798009BE7162599E7162597E70220FFF7F4FE41
:1017A8004288018812F0010F40F0868011F0010F85
:1017B80040F08480C38813F0010301D0002A7FD051
:1017C800002B34D0374B1B88934201D01D2551E0A4
:1017D800002B77D0442A77D8838803F00C02042A98
:1017E80001D01D2546E02D4A1278022A07D0022A88
:1017F8006CD02D4A12888A4207D01D253AE0B1F5EF
:10180800805FF4D3B1F5405FF1D213F0400F0AD0F6
:10181800264A0121117013F0020F3FF459AF1D4BF6
:1018280000221A7054E7214A00211170F3E7002AB8
:101838004ED11C4B1B88002B3FF44AAF1D2519E0E5
:101848001E2545E71E2543E71E2541E71E253FE7E0
:101858001E253DE71E253BE72046FFF795FEC2887B
:10186800134B1A800134E4B2124B1B78A342F3D80D
:1018780000E01425284638BD1725FBE71725F9E7AA
:101888001725F7E71725F5E71725F3E71725F1E7F4
:101898004C07002034070020500700204407002090
:1018A80048070020520700204A0700203F07002071
:1018B800220700204E0700201725DBE71725D9E768
:1018C8001D25D7E71D25D5E71D25D3E71D25D1E71C
:1018D8001D25CFE7F0B585B00023ADF80C30ADF885
:1018E8000A3001930093684A9489684A928914409F
:1018F800674A1380674A13700220FFF745FE028883
:10190800654B1A80838813F0020F40F08780032507
:101918000320FFF739FE0388604A1380828812F09B
:10192800020F7DD103225E49B1F800E00EFB0232BE
:101938005C4909888A4205DD5B480088084483427F
:10194800C0F25E8259480088824205DD584A1288F2
:1019580002449342C0F256824F4AB2F800C0554A38
:10196800128805FB02C2914205DA4F4D2D882944A1
:101978008C45C0F24982904205DA4D4909880844ED
:101988008445C0F24382934203DA73449C45C0F213
:101998003F8202224FF418610DF10E0004F0B8F8EE
:1019A80004224FF41A610DEB020004F0B1F804228E
:1019B80040F6A411684604F0ABF80098324B5B88F7
:1019C800324A5188BDF80E2012F4106533D012F453
:1019D800C06600F01F82B6F5806F00F01D826CB102
:1019E80014F0040F03D112F4007F40F0178214F0B2
:1019F800080F03D112F4806F40F01282019F47B1A3
:101A0800A7F5F42CACF5907CDFF8B0E0F44500F2D3
:101A18000982B6F5C06F05D000260DE0012577E7ED
:101A2800012280E7C8B1B84219D314F0100F00F0B2
:101A3800FB81012600E000261F4C2478002C3FD0B3
:101A48007DB99A1E92B2012A40F2F081022900F073
:101A5800EF81032946D13020FEE00026ECE700267E
:101A6800EAE712F4806F05D1032B00F0E381032924
:101A780000F0E28112F4007F34D1022B00F0DE8105
:101A880002292FD13020E7E0340A0020F009002095
:101A980054070020380700204A0700204807002084
:101AA80050070020E2090020E6090020E009002094
:101AB800E409002052070020EB090020E05E48C33B
:101AC800002D40F0D580904B1A88002A00F0C6807F
:101AD8008E4B1988002900F0C780222101238C4AE7
:101AE80001249483032B00F0D680022B00F0D980C8
:101AF800884A12782AB9002B00F0A281002900F048
:101B0800A18103B911B1844A01241470824A127860
:101B180042B17D4A1288002A00F0CA807F4A4FF4F9
:101B2800806414809A1E92B2012A03D9022901D036
:101B3800032908D17A4A01241470734A128812B909
:101B4800764A00241480724A5380764A51800022D3
:101B5800754C2280754C2280754C2280754C2280F1
:101B6800002E40F0AF80022B00F0CA80032902D07B
:101B78006D4B01221A80704B00221A8002224FF40A
:101B880084610DF10A0003F0C3FFBDF80A205E4B23
:101B98001B8813B1002A40F0E7800023ADF80C3011
:101BA800664A1380654B1B8823B9654A1278002A58
:101BB80040F04A8123B1624B1B78002B00F046812C
:101BC800554B1B783BB1504B1B8823B1534A1388A4
:101BD80043F48063138000235A4A13805A4A1380BF
:101BE8005A4A13805A4A13805A4A13705A4A137031
:101BF8005A4A13804B4A82F84030454A82F84030AE
:101C08001385BDF80E3013F4007F18D0019959B12F
:101C18004A095348A0FB0202D2095248814200F205
:101C2800C280484A0120108013F4806F07D0009AC0
:101C3800914240F2C180434B1A88454B1A80324B7F
:101C48001B88002B40F0D480304B1B88002B40F0C1
:101C5800D38003F009FA002005B0F0BD2B4B1B8898
:101C680023B1134601213AE7012338E7194636E73D
:101C7800254B1B880BB156B1032324490988002939
:101C88003FF430AF12F4806F03D003212AE7022318
:101C9800F3E7022126E7019A1D4C6262214C626239
:101CA80026E7019A1A4C626292B21E4C62621FE7E2
:101CB800164A1288002A3FF435AF184A4FF40064D8
:101CC80014802FE7019B98420AD3B0FBF3F291B23C
:101CD800174C218003FB12022AB90131218002E04E
:101CE800134A01211180B0FBF3F18AB20E4C228015
:101CF80003FB110000283FF43EAF013222803AE78F
:101D08000B4B01221A8031E75207002050070020B0
:101D1800340A0020340700203C0700205407002024
:101D280037070020F0090020200700201E070020A8
:101D38005A07002058070020EC0900201807002047
:101D48003F0700202607002024070020280700203E
:101D58002A070020360700203E07002042070020FF
:101D6800C55A7C0A1FA1070002224FF4806103A80C
:101D780003F0CEFEBDF80C207AB10232BDF80A108D
:101D880046F2A71302FB0133DB08314AA2FB032307
:101D9800C3F30F232F4A138004E70023ADF80A305A
:101DA8002C4A1380FEE6520092B22B48A0FB020296
:101DB800D2082A48028037E753092949A1FB0313AF
:101DC800DB0928498A420AD8274B01221A80264A69
:101DD800224B1988138803EB510313802FE75B000C
:101DE8009BB21D4AA2FB0323DB081F4A1380EEE7C0
:101DF8000220FFF7F3FB27E70320FFF7EFFB28E7B5
:101E08001E2029E71E2027E71D2025E71D2023E7A0
:101E18001D2021E730201FE730201DE730201BE779
:101E2800302019E7362017E7302015E7302013E770
:101E3800302011E730200FE730200DE730200BE786
:101E4800292009E7292007E71F2005E71F2003E7C6
:101E580089B5F81418070020CDCCCCCC2607002073
:101E6800C55A7C0A1FA107002A070020094B1B78C6
:101E780053B9094B1B7853B1084BC8221A80084B39
:101E880000221A80FF207047064B18887047FF20F1
:101E9800704700BF3D070020370700204207002099
:101EA80040070020560700200023024A1370024A08
:101EB80013707047380700203A07002008B51D4BFB
:101EC8001B88002B2ED11C4B1B88002B2ED14FF2C8
:101ED800F330FFF7F9FA0023184A1370184A137001
:101EE800184A1370184A1370184A1370184A138046
:101EF800184A1380184A1380184A1380184A138006
:101F0800184A1380184A1380184A1380184A82F80E
:101F18004030184A1380184A1370184A1370184A28
:101F2800137008BD0220FFF73DFBCCE70320FFF745
:101F380039FBCCE752070020500700203807002063
:101F48003C07002037070020360700203E07002006
:101F58005A070020580700202607002024070020E1
:101F6800280700202A070020200700201E0700203D
:101F7800F0090020420700203F0700203907002011
:101F8800EB090020014B00221A707047EB09002072
:101F980000B583B0ADF806100F4B1B78834201D013
:101FA8000D4B18704FF6FF7399420DD10A4B1B78F1
:101FB800ADF8063002224FF498710DF1060003F0D7
:101FC80029FE03B05DF804FB02224FF49A710DF16B
:101FD800060003F01FFEE9E7440700202DE9F04161
:101FE8000E46474B4FF6FF721A80464B01221A7075
:101FF80010F010072BD0444A137823F01003137005
:10200800012700F00F05404B1C782401E4B22C4452
:10201800E4B2482C2FD8222C28D3A4F12203262B53
:102028007ED8DFE803F02F7D357D7D7D7D7D7D7D4C
:102038007D7D7D7D7D7D7D7D7D7D7D7D7D7D7D7DC8
:102048007D7D7D7D7D7D2F7D3B7D7D7D3B002E4B88
:102058001B7813F0100F04D000F00F02012A40F093
:10206800258203F00F03284A1370CAE7122C09D0FF
:102078004FF0000856E0842C10D0882C0ED0822C0B
:1020880040F0D2800220FFF7C5FA1FFA80F80BE073
:102098001E491F4803F072FA804628B91D4B18786C
:1020A800FFF7B8FA1FFA80F8B8F1000F3AD0164BCC
:1020B8001B78042B00F0AC81082B00F0A581022BC3
:1020C80000F0AA81B8F1FF0F40F0C581124B012240
:1020D8001A70A4B2114B1C80242C00F0B58100F2B8
:1020E800AD81123CA4B2944200F2AA81044B4FF491
:1020F800FA621A80024A1388323B1380D6E100BF85
:102108001C07002035070020440700205207002044
:10211800500700204E0700203B07002046070020FC
:102128004FF000089D4B00221A80A4F11103772B71
:1021380000F28F81DFE813F040018000BC016501E7
:102148008D018D018D0165018D018D018D018D013F
:102158008D018D018D018D012A0142016501AC00BF
:102168008D018D018D0165018D018D018D018D011F
:102178008D018D018D018D017B0065018D0165014A
:102188008D018D018D0165018D018D018D018D01FF
:102198008D018D018D018D011D010801650142012F
:1021A8008D018D018D01D2008D018D018D018D0173
:1021B8008D018D018D018D018D018D018D018D01A7
:1021C8008D018D018D018D018D018D018D018D0197
:1021D8008D018D018D018D018D018D018D018D0187
:1021E8008D018D018D018D018D018D018D018D0177
:1021F8008D018D018D018D018D018D018D018D0167
:102208008D018D018D018D018D018D018D018D0156
:102218008D018D018D018D011001FB006501F30019
:102228008D018D018D0142014FF000087AE7FFF71B
:10223800A9FE4FF013080EE1FFF786F9584B1B78FB
:10224800002B00F0F880B8F1000F7FF43BAF00F0EE
:10225800F9FC804668B1B8F1000F3FF433AFB8F12C
:10226800FF0F3FF42FAF4F4B1B7873B100F036FDD3
:1022780028E74C4B00221A7003F02FF980460028FB
:10228800E9D1494B01221A70E5E703F028F9EDE797
:10229800FFF720FB804668B1B8F1000F3FF412AF9A
:1022A800B8F1FF0F3FF40EAF3E4B1B789BB1FFF721
:1022B80005FE07E73B4B00221A703C4803F011F972
:1022C80080460028E8D1394B1888FFF71DF9384BAC
:1022D80001221A70E0E703F006F9E8E7FFF7C6FD08
:1022E800804668B1B8F1000F3FF4ECAEB8F1FF0FCB
:1022F8003FF4E8AE2B4B1B7873B1FFF7D5FDE1E651
:10230800284B00221A7003F0F0F880460028E9D123
:10231800284B01221A70E5E703F0EAF8EDE703F02D
:10232800E7F8FFF7C1FD1F4B00221A70CAE603F059
:10233800DFF88046FFF7B8FD1A4B00221A70B8F193
:10234800000F7FF4BFAE422403F0CDF8FFF7B6FDCF
:10235800144B00221A70B5E603F0CAF88046FFF75E
:10236800A3FD104B00221A70B8F1000F7FF4AAAE3B
:10237800412403F0B8F88046FFF7A0FD094B00227E
:102388001A70B8F1000F7FF49DAE212400F0A6FC6E
:1023980003F0A5F88046FFF7F5FD93E64607002011
:1023A8001A07002035070020610900205407002083
:1023B800390700203A070020FFF7E4FD8FB9504B9A
:1023C8001B78002B77D14F4B1B7813F00C0F75D06F
:1023D8004D4B1B884BB94D4B1B8863B94FF0FE081A
:1023E80039E0204603F078F8E9E70220FFF7F6F82D
:1023F8004FF0FE082FE00320FFF7F0F84FF0FE083B
:1024080029E04FF0110826E003F072F8FFF74CFDC1
:1024180003F069F8FFF752FDB8F1160F03D0394BF6
:1024280002221A704EE600F059FC03F058F8354BBA
:1024380001221A7046E64FF0510843E6482C03D0B3
:10244800334BC8221A8055E6314B42F228321A80A3
:1024580050E64FF012082B4B187800F00F039D42FE
:1024680047D0B8F1000F00D166B1284310F0080F2B
:1024780008D0284B1B7823BB234B1B8833BB234B2B
:102488001B883BBBB8F1000F2CD01E4B1B78082BC8
:1024980024D01C4A137843F0100313701E4B0022FB
:1024A8001A704146174B1878FFF772FDBDE8F081A6
:1024B8004FF01308CFE74FF0FE08CCE74FF0FE08C7
:1024C800C9E703F015F8FFF7EFFCD5E70220FFF79F
:1024D80069F8D7E70320FFF765F8D3E7094B04222B
:1024E8001A70D6E716B145F01005B046054B1D70B9
:1024F800D4E70021084B1970FFF74AFDD6E700BF63
:102508003D07002044070020520700205007002004
:102518001C0700203A0700203B07002038B5784BFD
:102528001B78002B3BD0774BB3F90030002B62D1DE
:10253800754B1B88C3F30714242B34D011D8123BD6
:102548009BB2012B00F2D680704B1B7843B300F08E
:10255800C5FB6F4B1B78002B00F0CE806D4B1D88A0
:1025680012E0482B0FD16C4B1B7863B36B4B1B7875
:10257800002B30D06A4B1B78002B33D1694B1B885A
:1025880093BB1A2528E000254CB15D4B00221A7038
:102598000DB144F0100429462046FFF7F9FC38BD78
:1025A80002F09DFFD3E7594B1B784BB1FFF786FC30
:1025B800574B1B78002B00F0A180564B1D88E3E792
:1025C80002F091FFF2E7574B1D887DB9564B012267
:1025D8001A700824D8E72D254C4B1B7843B1FFF718
:1025E80063FCD1E71A25F7E71B25F5E71B25F3E779
:1025F80002F07EFFF3E7444B1B88242B40D016D80B
:10260800123B9BB2012BCAD8404B1B78002BC6D07B
:102618003E4B00221A7002F060FF054648BB434B50
:1026280001221A70384B1C7804F00F04ACE7482BD1
:10263800B5D1364B1B78002BB1D0374B1B78002B0C
:102648003FD03B4BB3F90030002BA8DD394AB2F933
:1026580000209342A3DC0023354A1380354A1380B7
:1026680002F043FF054620BB2F4B01221A700824B5
:102678008BE7FF2893D002F032FF00F02FFB8EE7A4
:10268800224B1B78002B8AD0204B00221A702A4834
:1026980002F027FF054620B9284B01221A700424AE
:1026A80073E7FF283FF47BAF02F01DFFFFF706FC3E
:1026B80075E7FF283FF473AF02F01AFFFFF7F4FB4A
:1026C8006DE7184B1B8823B1154B1B78002B3FF483
:1026D80066AF02F00AFF054620B9134B01221A70B3
:1026E800082452E7FF283FF45AAF02F001FFFFF732
:1026F800DBFB54E7002547E7012545E7012543E7CC
:102708003B0700201C070020460700203507002053
:102718003D07002056070020370700203607002015
:1027280038070020520700203A07002061090020DE
:1027380042070020400700205407002039070020E6
:102748002C4B1B78002B54D02B4B1B883BB12B4AAE
:102758001288934203D82A4B00221A7009E0274AAC
:102768001288934202D90132244B1A80244B012249
:102778001A70234B1B784BB1224B1B8833B1224A6A
:102788001288934218D901321F4B1A801C4B1B78B0
:102798004BB31E4B1A8D1E4B1B899A4210D21D4BF0
:1027A80001221A701C4BB3F90030002B21DD1B4AA3
:1027B8001388013313807047114B00221A70E5E724
:1027C800144B1B78ABB1134B00221A700F4B01222C
:1027D80083F84020104BB3F90030002B09DD0F4B74
:1027E80000221A8070470B4B1B7813B1094B00224B
:1027F8001A7070473707002026070020240700209A
:10280800360700202A07002028070020340A002065
:10281800100000203E07002042070020400700204B
:1028280000B583B01D4B1B8873B91D4B1B7843B192
:102838001C4B1B782BB11C4B1B7823B31B4B1B78F1
:1028480033B303B05DF804FB0023ADF80630022271
:102858004FF488610DF1060003F05AF9BDF806300F
:1028680013F0010FE1D1124B1B88002BDDD00D4B6B
:102878001B781BB90F4B00221A70D6E71B210420C6
:10288800FFF7ACFBDDE72C210420FFF7A7FBD8E717
:102898001A210420FFF7A2FBD3E700BF1807002086
:1028A800370700203A070020360700203E0700209F
:1028B800520700203807002010B582B00024ADF878
:1028C8000640022204210DF1060003F021F9BDF8AB
:1028D80006301B0A274A1370022206210DEB01005D
:1028E80003F016F9BDF806309B029BB203F6FF739E
:1028F800214A1380FEF728FE04E02046FEF752FE28
:102908000134E4B21B4B1B78A342F6D800F030F92F
:1029180000241A4B1C701A4B1C701A4B1C701A4B53
:102928001C701A4B1C701A4B1C701A4B1C801A4BCB
:102938001C801A4B1C801A4B1C801A4B1C801A4B8B
:102948001C701A4B1C701A4B1C801A4B1C801A4B9B
:102958001C801A4B1C800120194B18702146FFF768
:1029680017FB184B1C80184B1C70FEF765FD02B056
:1029780010BD00BF4E0700204C070020350700207F
:102988003B070020380700203A07002039070020BD
:102998003F070020180700202407002026070020F2
:1029A800280700202A070020370700203D070020BD
:1029B8005607002054070020520700205007002027
:1029C80044070020460700203C07002010B582B0CD
:1029D8000023ADF806300123ADF8043000F0F2FB17
:1029E800484B1B78002B4CD103F0E8F8044610F054
:1029F800010F03D0444B1B78002B49D014F0100F63
:102A08000BD0414B1B7843B9404B187810F0100F8E
:102A180003D120F01003012B4AD13B4B1B78002B2C
:102A28004FD1384B1B7853B3BDF8043013F0010F66
:102A38004AD014F4007F4FD1BDF8043013F00203DC
:102A480002D0334A12781AB1A3B9314B1B788BB133
:102A580000F088FA2E4B1B78002B48D0BDF80430C4
:102A680043F40073ADF80430022240F60E0101A8C9
:102A780003F0D0F803F0A2F810F4807F3ED102B042
:102A880010BD022240F60E0101A803F041F8ABE7A1
:102A980002224FF490710DF1060003F039F824F08A
:102AA8001104A4B200219DF80600FFF797FAA5E7E4
:102AB80024F01004A4B2002100F00F00FFF78EFAF2
:102AC800ABE7FFF72BFDACE7104B1878002100F0BF
:102AD8000F00FFF783FAACE70E48002303800222B9
:102AE8000D4B198803F096F800F0F2F9A4E7BDF849
:102AF800043023F40073ADF80430B5E700F0DEFAD3
:102B0800BDE700BF610900203B0700204407002003
:102B1800600900205C070020E20900204A88531C55
:102B28009BB2B1F804C09C4509D0B1F800C09C45DF
:102B380007D0023241F822004B8000207047002362
:102B4800F3E7072070470246038841888B420CD080
:102B5800991C50F8210001339BB213809188994247
:102B680000D070470023138070470020F9E7000069
:102B780010B582B0224B22221A80224B4FF4807269
:102B88001A804FF48053204A1380204A1380204B28
:102B980000241C805C800A229A801E4B1C805C806A
:102BA8009A801D4B1C601D4B1C601D4B1C601D4BEF
:102BB8001C601D4B1C70ADF80640022240F60E0149
:102BC8000DF1060002F0A4FFBDF8063023F40073EF
:102BD800ADF80630022240F60E010DF1060003F0B2
:102BE80019F8124B1C70124B1C70124B1C70124BB4
:102BF8001C70124B1C70124B1C7002B010BD00BF31
:102C0800E4090020E6090020E0090020E20900208C
:102C180078090020AC090020740900206C09002004
:102C2800680900207009002060090020610900205F
:102C38006409002063090020E8090020EA0900204F
:102C4800E909002038B50020FEF79EFC43881D4C9A
:102C5800238003881C4D2B800120FEF795FC4388B8
:102C68001A4A138001881A4A118028882288024447
:102C78008A4202DD0B44984222DB0020FEF7AEFCBC
:102C88000120FEF7ABFC0F4B188803F0BBF8114B83
:102C9800186030B10024104B1C7003F0BBF82046BC
:102CA80038BD0D4B01221A700A2003F0ABF8094B0E
:102CB800186018B1002403F0ADF8F0E70224FAE731
:102CC8001624ECE7E4090020E0090020E6090020CA
:102CD800E2090020740900206209002010B582B0C2
:102CE80000202F4B1870FEF75DFC0120FEF75AFC00
:102CF8002C4B186808B103F08DF82B4B186828B1D5
:102D0800284B1B68984201D003F084F8274B1868B9
:102D180048B1244B1B68984205D0234B1B68984246
:102D280001D003F077F800241E4B1C601F4B1C6079
:102D38001D4B1C601E4B1C70ADF80640022240F66D
:102D48000E010DF1060002F0E3FEBDF8063023F493
:102D58000073ADF80630022240F60E010DF10600B0
:102D680002F058FF134B1C70134B1C70134B1C7054
:102D7800134B1C70134B1C701348FFF7E4FE10B97B
:102D88000028F9D101E003F045F81048FFF7DBFE11
:102D980010B90028F9D101E003F03CF802B010BDE9
:102DA800610900206C0900207009002068090020D2
:102DB800600900206409002063090020E809002058
:102DC800EA090020E909002078090020AC09002060
:102DD80008B58388C3F30323032B01D0022008BD61
:102DE800FEF734FBFBE70000F0B583B02F4B1B78F0
:102DF80003F00F03012B55D004462D4B1B78002BF5
:102E080052D02C4B1D781DB10725284603B0F0BDC4
:102E18000788BA1D92B2284B198802F0FBFE0023DE
:102E2800ADF80630022240F60C010DF1060002F062
:102E38006FFEBDF806309BB2ADF80630BDF806301F
:102E480013F4006F14D11D4B1E88F21BD2B2063A40
:102E5800D2B21B4B00211980012A15D9164B1988AB
:102E6800314489B20239022289B2154802F0D2FEF1
:102E7800144B1B6893B1144B00221A60114B1C6051
:102E88000C4B01221A70C0E7B91D21F00101C2F1F3
:102E980002022144184602F0C5FFDFE70A4B0B4A3D
:102EA8001A60EBE7F025B0E7F025AEE7440700200D
:102EB8006109002064090020E2090020E6090020D9
:102EC8005C070020680900207409002060080020C1
:102ED80008B51D4B00221A701C4B186810B11C4B0A
:102EE8001B6893B11B4B1A68184B1A60184B18686B
:102EF80088B1FFF779FF164B00221A60164B1B7832
:102F080013B113F0020F0ED108BD02F083FF0F4B6F
:102F180000221A60E6E71148FFF715FE0028EDD0F9
:102F2800FFF762FFEAE723F002030B4A13700C4B2A
:102F38001868FEF7A1FA0028E6D0074A137843F08C
:102F480002031370E0E700BF640900206C09002049
:102F58007009002068090020E8090020AC09002059
:102F68007409002010B5124B1C685CB1114B1B781A
:102F780013B1114B1B6863B12046FFF735FF0C4BAB
:102F880000221A600D4A1378B3FA83F35B091370B1
:102F980010BD0120FEF706FB094B1A68064B1A60A4
:102FA8000120FEF71BFB034B00221A70E4E700BF69
:102FB8006C090020640900207009002060090020C5
:102FC8006809002038B51D4B1B7803F00F03012B4F
:102FD80032D005460C468388C3F30B038380184A16
:102FE800127812F0070F02D1154A01211170144A04
:102FF800127843EA0233AB802846FFF7F5FE38B96A
:103008000F4A13780133137064B2002C0DDB38BDFE
:103018000C492846FFF782FD10B144F08004F3E71D
:10302800074A137801331370EEE704F07F04064B68
:103038001A7814431C70EAE7F020E8E744070020F8
:10304800E9090020AC090020E809002010B5044671
:1030580083880188B1F5807F0DD81A0B1AB1154BFA
:103068001B78934222D0134B1A7013492046FFF75E
:1030780055FD68B910BD0422028023F47063838073
:103088000123C380082303810021FFF79BFFF1E799
:1030980004222280A28822F47062A2800122E280A7
:1030A800208100212046FFF78DFFE3E702F0B2FE02
:1030B800E0E700BFEA0900207809002010B582B0D7
:1030C8000222384B19880DF1060002F021FD364B1B
:1030D8001B78012B10D0BDF8063006339BB2ADF833
:1030E8000630324A127812B9314A1278D2B1314BCD
:1030F80001221A7002B010BD0A2002F083FE0446B5
:103108000028E8D000210160416001810423038088
:103118000123C38007230381FFF754FF204602F0F1
:1031280079FED8E7234A00211170234A1088834288
:1031380001D9ADF8060002F065FE204B1860E8B131
:10314800BDF80620174B198802F0E2FC0023ADF801
:103158000430022240F6040101A802F0D9FCBDF8AF
:1031680004309BB2ADF80430BDF8043013F4006F9E
:1031780008D1124B1868FFF769FFBBE70D4B012216
:103188001A70B7E70E4800230380064B19880A4BCC
:103198001B88194489B20239022289B202F0B8FCAC
:1031A800E7E700BFE0090020620900206409002069
:1031B800E809002063090020E409002074090020C0
:1031C8005C07002010B500E0BCB10F48FFF7BBFC5E
:1031D80004460028F8D0FFF7FBFD0028F4D00422AD
:1031E8002280A28822F47062A2800122E2802081DB
:1031F80000212046FFF7E6FEE6E7044B1B7803B9FB
:1032080010BDFFF75BFFFBE778090020630900208A
:1032180010B5044601F0E8FD00E0406810B10389EC
:10322800A342FAD110BD10B5B2F80CE0CEF30320DA
:1032380023B35FFA8EFE072838D0082802D001236E
:10324800002014E09369187813691B8903FB00F0C8
:103258000730C008F9B902301DE003EB430C1469CC
:1032680004EB4C0CBCF802C060440133DBB273457C
:10327800F3D90730C00871B902300CE007280BD029
:10328800B1B108280DD0136901EB410103EB4101ED
:1032980048880730C01010BD136958880730C0101F
:1032A800F9E7136918890730C010F4E70020F2E73E
:1032B8000120F0E7302383700E4BA3FB01234FEA74
:1032C800531C027802EB53130370642303FB1C1195
:1032D800C9B2094AA2FB0132D30890F801C00CEB2D
:1032E800D202427003EB8303A1EB430130318170BA
:1032F800704700BF1F85EB51CDCCCCCC2DE9F041F8
:1033080084B01D4654699389C3F30323D1B10F4692
:10331800072B17D0092B24D0002D52D02A4B6C46EE
:103328000FCB07C4237039460DF10900FFF7C2FF20
:103338006B4607CB28606960AA601B782B734FF037
:103348000C080AE02046FCF73BFF1FFA80F825B17D
:1033580042462146284602F065FD404604B0BDE8D5
:10336800F0811FFA81F82046FCF72AFF461C264404
:10337800012444451FD83378FD2B19D8444507D07C
:103388000134A4B23046FCF71BFF01300644F0E7D5
:103398003046FCF715FF1FFA80F8002DBCD0B8F1B5
:1033A800000FB9D042463146284602F03BFD04E002
:1033B8004FF0000801E04FF00008B8F1000FCCD141
:1033C800AAE74FF00C08C8E7000000208389C3F380
:1033D8000323082B05D0006901EB410100EB4100F4
:1033E800704709B9006970470069063070472DE9D0
:1033F800F047804620278740BFB201F0F5FC05461C
:103408004FF0000A15E0B5F80C904646002401E09C
:103418000134A4B2B6B15FFA89F39C4212D8E1B282
:103428002846FFF7D3FF83883B42F1D00026EFE719
:103438006D6875B12B89B3F5805FF9D3B8F1000FCA
:10344800E1D14646002EF3D10AF1010A1FFA8AFAA1
:10345800EEE75046BDE8F0872DE9F04F83B082468D
:103468000191174600934FF0200909FA00F91FFA55
:1034780089F90B88B3F5805F0DD0254B1D685DBBBE
:10348800002D3FD02B89019A1380214B1D603846AF
:1034980003B0BDE8F08F01F0A7FC05460028EED187
:1034A8000C9B002BEBD01B230C9A1370E7E795F8C5
:1034B8000CB05646002401E00134E4B2CEB15C45BC
:1034C80017D821462846FFF781FF838813EA090F9A
:1034D800F2D00026F0E76D68002DD1D0012FCFD9AA
:1034E800B5F80880B8F5805FF5D3BAF1000FDED1E2
:1034F8005646002EEFD1009B23F8028B0093023F23
:10350800BFB2E8E74FF6FF73019A1380BDE700BF2B
:103518009C0A00200A307047F0B5B1F80CE0CEF3F1
:10352800032E044600B11020BEF1070F00F0B18051
:10353800012227E00D69063530E0B3F5187F0ED07B
:1035480007D3A3F2622C1FFA8CFCBCF1010F40F2E6
:103558008D80964214D96B88184480B210E00F30E1
:1035680080B220F00F0080B2964209D90B2B02D00E
:10357800B3F5187F02D16B88184480B2103080B23E
:10358800013292B2A6B29642C0F08480BEF1080F12
:10359800D0D00D6902EB420305EB43052B882F2B96
:1035A800CBD8032BD5D3A3F1030CBCF12C0FD0D867
:1035B80001A757F82CF000BF6735000875360008DA
:1035C8005B35000867350008753600087536000851
:1035D8005B3500085B350008673500085B35000877
:1035E8005B3500085B3500085B3500085B35000873
:1035F8005B3500085B3500085B3500085B35000863
:103608005B3500085B3500085B3500085B35000852
:103618005B3500085B3500085B3500085B35000842
:103628005B3500085B35000867350008753600080B
:103638005B3500085B3500085B3500085B35000822
:103648005B3500085B3500085B3500085B35000812
:103658005B3500085B3500085B3500085B35000802
:103668005B35000867350008753600081F3080B2E2
:1036780020F01F0080B2964282D9A3F262239BB247
:10368800012B02D9203080B27AE76B88184480B2C7
:1036980076E70020F0BD00BF22297AD8DFE801F0E4
:1036A8001214496179797979797979797979797996
:1036B8007979797979797979797979797979797972
:1036C800797938000020704741F63243984205D096
:1036D80041F6334398420CD012207047354B1B8873
:1036E800002BF5D0344B9B8913F0020FF0D000204B
:1036F8007047324B9B8913F0020F4CD02D4B1B881F
:10370800002B4AD12E4B1B88002B48D11220704722
:1037180041F63343984201D012207047274B9B89CA
:1037280013F0020F3DD0234B1B88002B3BD11220F6
:10373800704741F63243984205D041F633439842E8
:1037480008D0122070471C4B9B8913F0040FF4D04B
:1037580000207047194B9B8913F0040F25D11220C4
:10376800704741F63243984205D041F633439842B8
:1037780008D012207047104B9B8913F0080FF4D023
:10378800002070470D4B9B8913F0080F0FD11220B2
:10379800704712207047122070471220704700208F
:1037A80070471220704700207047002070470020A3
:1037B800704700BF52070020340A0020F00900209B
:1037C800500700202DE9F04F8BB004900791144664
:1037D8001F46149E9DF8543003931FFA81FBBB8942
:1037E800C3F303220992DBB20893072A05D0B0F588
:1037F800805F02D3BB691B780893039BABB1099B1D
:10380800072B00F0E781049BB3F5805FC0F0E581EA
:10381800089B0293FD694DB3039B009333462246F0
:1038280007990498A8470590E8E1089B5B45C0F014
:10383800D78107993846FFF7C9FD828882B1D3B28C
:103848005B00A249097803F00E0301F00F018B42D7
:1038580009D212F0070F40F0C68106230593CDE187
:10386800CDF808B0D6E7CDF808B0D3E7049BB3F598
:10387800805F80F09D81079D002D00F0A081BC69CC
:1038880029463846FFF7A2FD40880730C210C00815
:1038980005F18043013B54F8231011F0010F22D0A9
:1038A80021F001010904090C00220AE00B881B0A17
:1038B800338031F8024F43EA042326F8023B0132F1
:1038C80092B2B2EB500FF1D310F0010F00F08E81DD
:1038D800338803F47F4333800A8843EA1223338012
:1038E800002305938AE10B8833804B887380043A60
:1038F8000431301D02F096FA002305937EE1A046BC
:10390800C8F30F1A09EB4A0BE1B23846FFF75EFD20
:10391800054603795B006D4A127803F00E0302F046
:103928000F029342C0F00181069B9C4206D0039A85
:10393800002A00F01C819C42C0F01981002C4BD059
:103948002B88B3F5E06F05D36A88082A4BD802F1B3
:103958002F039BB2372B58D8372B00F24A81DFE868
:1039680013F0720086008600AA0046008600AA00AE
:1039780046004600CD005A005A0048014801480157
:1039880048014801B900480148014801B900480107
:103998004801480148014801B9004801480186002A
:1039A800AA00460048014801480148014801480169
:1039B8004801480148014801480148018600AA0019
:1039C80046008600860086008600860086008600FF
:1039D80086004FF0000893E7099B072BB0D0089B9F
:1039E80026F8023BC3E0102A65D0202AB2D118F08D
:1039F8000F0F40F00D8139F81A303380BBF80230D0
:103A08007380043601230793B1E0A3F518739BB2C2
:103A1800032B00F2F18018F00F0F40F0FF806A8846
:103A28000732D2105946304602F0FCF96B881A0961
:103A380006EB420613F00F0F00F0B18033783380A5
:103A48000123079393E0039B002B00F0DB806B8836
:103A580013F00F0F04D0984418F00F0F00D102365E
:103A6800C3F3031306EB4306012307937FE06A8839
:103A7800174B33F8123008F00F0293401FFA83FCFB
:103A880039F81A000AB9002131803188039B63B1E3
:103A98000CEA00030B4333806B88984418F00F0F2F
:103AA8007AD102360123079361E00CEA000313413F
:103AB8000B433380F0E718F00F0F40F0A68039F879
:103AC8001A3026F8023B0123079350E044070020F0
:103AD8008860000818F00F0F40F09D8039F81A3000
:103AE8003380BBF802307380BBF80430B380BBF876
:103AF8000630F38008360123079338E018F00F0FDB
:103B080040F08F806A880732D2105946304602F05A
:103B180089F96B881A0906EB420613F00F0F41D09A
:103B2800337833800123079321E018F00F0F01D178
:103B3800002333806B8813F00F0F06D0434413F033
:103B48000F0F02D1002373800236002304E0002205
:103B580026F8022F0133DBB26A88C2F303129342BC
:103B6800F5DBAB8813F0070F1FD10623059301344B
:103B7800A4B2029B9C4228D8D7F81890002C3FF496
:103B8800BEAE049BB3F5805FFFF423AF3946E0B2C5
:103B9800FFF7C2FC8046B3E601230793E7E701235A
:103BA8000793E4E701230793E1E71A230593DEE788
:103BB8005C46002305930793CDF818B0D9E7079B17
:103BC80005935C46CDF818B0D3E7079BB3B1002343
:103BD800059313E00523059310E0052305930DE0F5
:103BE800112305930AE01A23059307E000230593A0
:103BF80004E01823059301E01823059305980BB0FA
:103C0800BDE8F08F18230593F8E705230593F5E73A
:103C180005230593F2E705230593EFE705230593AD
:103C2800ECE705230593E9E72DE9F04F8BB0059004
:103C38000C4615461E46DDF850809DF85430049316
:103C48001FFA81FBB389C3F303220692DBB2079301
:103C5800072A1AD0B36993F800A0BAF1000F16D159
:103C6800A0F5E053103B9BB21F2B1BD9A0F5B05316
:103C78009BB2B3F5007F18D3A0F5D0539BB2B3F530
:103C8800007F04D2DDF81CA001E04FF0000A049B7D
:103C980073B1069B072B00F0328214BB0DB398F862
:103CA80000A01EE0DDF81CA0F1E7DDF81CA0EEE79F
:103CB800DA45C0F0278221463046FFF787FB818826
:103CC8008A1002F00E02A34B1B7803F00F039A42EE
:103CD80006DA11F0380F40F018820723039324E026
:103CE800DA46BCB1059AA2F5E053103B9BB21F2BF4
:103CF8000BD9A2F5B0539BB2B3F5007F05D3A2F55B
:103D0800D0539BB2B3F5007F13D2B3691B789BB92C
:103D1800099300E00994376A8FB1049B00934346E6
:103D28002A4621460598B847039003980BB0BDE88A
:103D3800F08F00230993EEE701230993EBE7002DA9
:103D480000F0E6815C4607230393002308931BE1F8
:103D5800069B072B00F04081B8F80030DAB20799CB
:103D68009142C0F0D881A9F8003008F10208012377
:103D7800089307E1102A7FD0202A40F0388110F0FC
:103D88000F0F40F0E081099B6BB1B9F80020B8F83B
:103D980000309A4240F0DA81B9F80220B8F80230CF
:103DA8009A4240F0D681B8F80030A9F80030B8F847
:103DB8000230A9F8023008F1040801230893E1E071
:103DC800A3F518739BB2032B00F2AB8110F00F0F11
:103DD80040F0C8816A880732D2104146484602F04E
:103DE80021F86B881B0908EB430801230893C9E0F5
:103DF800049B002B00F098816B8813F00F0F05D0FF
:103E0800184410F00F0F01D108F10208C3F303138F
:103E180008EB430801230893B4E06A884E4B33F853
:103E2800121000F00F0C01FA0CF297B2B9F800303A
:103E380023EA02031AB29E46049B8BB1B8F800200D
:103E48003A404EEA0203A9F800306B88184410F093
:103E58000F0F40F04A8108F102080123089391E00E
:103E6800B8F8003033EA010740F061810B4003FAEB
:103E78000CF313439BB2E6E710F00F0F40F05A81A2
:103E8800B8F80050099B23B1B9F80030AB4240F0B4
:103E98005481059BA3F5E053103B9BB21F2B0ED812
:103EA800A5F5B0539BB2B3F5007F08D3A5F5D05361
:103EB8009BB2B3F5007F02D3002D40F04181059BF2
:103EC800A3F5E153123B9BB2012B06D9A9F8005088
:103ED80008F102080123089354E0012CF6D1B9F83F
:103EE8000030AB4207D029460598FFF7D5FB039071
:103EF80000287FF41AAF194B01221A70E6E710F078
:103F08000F0F40F02981B8F80030A9F80030B8F850
:103F18000230A9F80230B8F80430A9F80430B8F82B
:103F28000630A9F8063008F108080123089329E0AB
:103F380010F00F0F40F013816A880732D210414603
:103F4800484601F06FFF6B881B0908EB4308012303
:103F5800089317E04407002088600008EB09002058
:103F6800002C00F0BD806B8813F00F0F05D01844AB
:103F780010F00F0F01D108F102081B0908EB4308E4
:103F8800182303930134A4B2544500F2B180D6F843
:103F98001890E7B239463046FFF718FA0546314619
:103FA8003846FFF7B9FAAB889B1003F00E036F4A47
:103FB800127802F00F029342D2DB1CB1C0F30F1348
:103FC80009EB43095C4504D0049B002BDAD05C451F
:103FD800D8D3002C3FF4BCAE2B88B3F5E06F06D3E2
:103FE8006A88082A3FF6C6AE02F12F039BB2372B28
:103FF8003FF6E6AE372B00F2918001A252F823F08B
:10400800F93D0008233E0008233E0008813E0008D1
:10401800873D0008233E0008813E0008873D0008D0
:10402800873D0008393F0008D53D0008D53D000808
:1040380025410008254100082541000825410008C0
:1040480025410008073F00082541000825410008D0
:1040580025410008073F00082541000825410008C0
:10406800254100082541000825410008073F0008B0
:104078002541000825410008233E0008813E00082C
:10408800873D000825410008254100082541000812
:104098002541000825410008254100082541000860
:1040A8002541000825410008254100082541000850
:1040B80025410008233E0008813E0008873D00088E
:1040C800233E0008233E0008233E0008233E000844
:1040D800233E0008233E0008233E0008233E000834
:1040E80008F10208182303934CE70123089349E7D2
:1040F800089B002B3FF419AE0023039315E6052314
:10410800039312E6112303930FE61A2303930CE695
:104118000023039309E61323039306E61823039366
:1041280003E61823039300E618230393FDE51223FF
:104138000393FAE505230393F7E51C230393F4E5BA
:1041480012230393F1E505230393EEE51C23039360
:10415800EBE51C230393E8E505230393E5E5052335
:104168000393E2E505230393DFE500BF440700203E
:10417800F8B5067A06F01006454B1B78B34200F0F6
:1041880085800446434B1B88093B9BB2404A167006
:104198001D46414A10680344404A1268934212D9A6
:1041A800151A3F4B00221A70237A238110F0010F51
:1041B8000DD140083B4A176837F8102043EA02231C
:1041C8002381002225E0364B01221A70ECE7354A9C
:1041D8001168400831F9102022F0FF0213432381AF
:1041E80001306A1E01EB400104F10A0001F01AFED9
:1041F80012E0111837F811C0013137F811301B02DD
:104208001BB243EA1C23111D04EB41014B80013210
:1042180092B2B2EB550FECD3E388C3F30B03E38000
:1042280043F44053E380238903F47F4323811C4AEA
:104238001278BAB133432381062D18D80A23238074
:10424800C5F107039BB25B009BB22289134323810C
:10425800134B1B78012B0ED10F4A13682B441360A4
:10426800002014E046F0010633432381E4E7ABB2B3
:1042780003332380ECE70B4C206801F0CBFD0020D2
:104288002060054B1860084B187000E00120F8BD4D
:10429800890A0020E6090020900A0020940A0020DC
:1042A800880A0020A80A00209A0A0020F0B583B0E6
:1042B800038903F01001814A1278914200F0E880E6
:1042C80004467F4A1288093A91B203F010027B48EB
:1042D80002707C4A1068002800F0EE807A4A15685F
:1042E8007A4A1268AD1A13F0010F17D0A942C0F02C
:1042F800A98021880339A94205D36FEA630606F02D
:104308000706AE4206D0072D40F2B680A94201D07A
:104318000E2698E06E4900260E7008E06C4E4FF0AD
:10432800010C86F800C0A94280F0A8800D4612F062
:10433800010F21D1618952081B0A43EA012320F8A1
:10434800123001236A1CB3EB520F33D2DA1C04EB90
:1043580042025288191D04EB41014E885B490968E5
:1043680003EB510157480068120A42EA062220F876
:10437800112001339BB2E5E7520810F8123020F8FB
:104388001230504851490A6852080668B4F9083092
:1043980023F0FF0336F812703B4326F8123000680A
:1043A8000B685B0801336A1E04F10A0100EB430045
:1043B80001F038FD464B1B780BB1002643E0454B16
:1043C8001B7801933F4B1B680093434B1B683E4A85
:1043D80012684249097842480088FFF725FC0646DA
:1043E800FF2806D0374F386801F014FD00233B60E2
:1043F80029E03C4B02221A70364B1A783A4B1A7055
:10440800364B1A78394B1A70354B1A88384B1A8044
:104418002D4B1A68374B1A602A4B1A68364B1A60AC
:104428002D4B1B681A6A354B1A60354B01221A70DE
:10443800344B1C600023264A1370334A1370234AF6
:10444800136036E00E2626BB0A232380E388C3F3D5
:104458000B03E38043F44053E380184B1B787BB194
:10446800302323811A4B1B78012B0CD00023174AC9
:104478001360254A13701CE00E26E4E70E26E2E7D7
:1044880020232381EEE7114A13682B44136010E0C0
:10449800012600230E4A13701B4A1370094B186833
:1044A80020B101F0B7FC074B00221A60074B00222D
:1044B8001A60304603B0F0BD0326EAE7890A0020F7
:1044C800E4090020A80A0020940A0020900A00208D
:1044D800880A0020870A0020AC0A00209B0A0020D6
:1044E800980A0020BC0A00208A0A0020BD0A002081
:1044F800B40A0020B80A0020B00A0020A00A002050
:10450800860A0020A40A00209A0A002010B5039CFD
:10451800602906D029B1B4F808C02CF0FF0CA4F823
:1045280008C0002842D1E088C0F30B00E08040F4C6
:104538004050E080402908D000292ED10A2323804A
:10454800238943F0200323813FE00299013903299D
:104558000FD80A232380029BDBB2C3F1040342F085
:10456800030242EA83032289134343F04003238171
:104578002BE002998B420BD20A332380029BA38142
:104588001B0CE38142F0410223891A4322811CE07B
:10459800029B9BB20A332380F0E7602915D00A23D7
:1045A8002380238943F0600323810EE00A232380BC
:1045B800E388C3F30B03E38043F40053E3808023D1
:1045C8002381064B53F82030E36002212046FEF792
:1045D800F9FC08B1024B1C6010BD00BFA8600008C0
:1045E800140700202DE9F04F89B00789B0F8009032
:1045F800994B1E78002E40F0FF8105465FFA87FB35
:1046080007F0E004402C05D039D8002C00F0C08118
:10461800202C2DD16B894FEA032A0AEB172A1FFA9F
:104628008AFA1B0A03935046FEF7F2FD049000280D
:1046380000F0CC810BF01002059213460246039954
:104648005046FEF7F0FD0290402C29D00BF00203F3
:104658000696DDF8088000220792202C45D0059B9D
:10466800002B70D0039B012B6BD94FF005090FE08D
:104678004FF00008CDF808804FF0030908E0602CDF
:1046880000F086814FF00008CDF808804FF003094C
:10469800B9F1FF0F40F0A481304609B0BDE8F08FB2
:1046A800B9F10A0F40F0AA81431E032B09D805F17E
:1046B8000C0307930023AB81EB8106968046012308
:1046C800CBE7664BB3F80080A8F11008029B43457E
:1046D80005D805F11003079306963346BDE7334620
:1046E8000122069200220792B7E75BB1B9F10A0FDF
:1046F80040F08681CBF38108C8F1040805F10C036A
:104708000793ACE7EB89B5F80C8008EB034808F190
:104718001002534B1B889A420DD9063B994540F02D
:10472800718105F110030793A9F10A03434596D255
:104738000123069393E708F10A039945F1D0082667
:10474800AAE701230593069B002B00F0AF80012305
:10475800444A1370444A1370444B059A1A70444BE8
:10476800A3F800A0434B039A1A70434B049A1A60AB
:10477800402C25D0414BC3F80080414B186820B12C
:1047880001F048FB3E4B00221A603C4B1868013090
:1047980020F0010001F036FB394B1860A0B1402C25
:1047A80019D0A9F10A08424605F1100101F03AFBB7
:1047B800344B00221A70B146334BC3F8008067E7C8
:1047C8002E4B029A1A60D8E7059B002B00F0058152
:1047D8004FF005095CE7059B01930090049B029A42
:1047E80003995046FEF7EEFF8146002829D0FF289E
:1047F800E2D1264B04221A70254B059A1A70254BD4
:10480800039A1A70244BA3F800A0244B029A1A604A
:104818001B4B1A68224B1A60049BDA69214B1A60F9
:104828000D4B01221A70204B1D602B8903F47F4326
:104838002B8107F0F0073B432B81124B60221A7043
:104848002AE742460E4B196805F1100001F0EAFA12
:104858000C4B60221A70AFE7860A0020E609002098
:10486800E4090020880A0020890A0020870A00201D
:10487800980A00209B0A0020AC0A0020940A002015
:10488800A80A00209A0A0020900A0020BC0A0020EA
:104898008A0A0020BD0A0020B40A0020B80A0020B5
:1048A800B00A0020A00A0020A40A0020029B43B9F5
:1048B800554BA3F800A0554B039A1A70544B049A11
:1048C8001A60402C31D0059B0193079B0093049BF1
:1048D800424603995046FFF7A7F98146FF287FF41F
:1048E800D7AE01234B4A13704B4A059911704B4AB6
:1048F800039911704A4AA2F800A04A4AC2F80080F7
:10490800494A07991160049A116A484A1160484A4D
:104918001370484B1D602B8903F47F422A8107F0EE
:10492800F00313432B81069EB6E6059B0193079B74
:104938000093049B029A03995046FEF743FF814671
:10494800FF287FF4A5AE334B03221A70324B059A29
:104958001A70324B039A1A70314BA3F800A0314BEE
:10496800029A1A60304B079A1A60049BDA692F4B37
:104978001A602F4B01221A702E4B1D602B8903F4ED
:104988007F432B8107F0F0073B432B81069E83E68C
:10499800294B1B78A34206D04FF00008CDF80880B9
:1049A8004FF0030974E644B92846FFF77FFC8146B7
:1049B8004FF00008CDF808806AE62846FFF7D8FBD4
:1049C80081464FF00008CDF8088061E64FF00008F6
:1049D800CDF808804FF008095AE64FF0040957E669
:1049E8000195029B00931FFA88F30BF010022146F1
:1049F8004846FFF78BFD4FE609264DE608264BE6AD
:104A0800082649E6082647E6980A00209B0A00205F
:104A1800AC0A0020BC0A00208A0A0020BD0A002037
:104A2800B40A0020B80A0020B00A0020A00A00201A
:104A3800860A0020A40A00209A0A00202A4B1B7824
:104A4800002B50D02DE9F04383B005460C461146A3
:104A5800264BD3F8008098F8082002F0E00902F00D
:104A68001007B9F1400F0FD000261F4B00221A7013
:104A7800CDF80480009433463A4649462846FFF765
:104A880045FD03B0BDE8F083194B1E88103EB6B251
:104A9800A6420AD3631E032B1DD808F10C008842D6
:104AA800E3D0224601F0BEF9DFE70123114A137073
:104AB800114A1370114B1F70114B1C60114B60226F
:104AC8001A70114B1960324608F1100001F0AAF96A
:104AD8000E4B1E60C9E708F110008842C5D0224677
:104AE80001F0A0F9C1E77047860A0020A40A002057
:104AF800E6090020880A0020890A0020870A002089
:104B0800940A00209A0A0020A80A0020900A00208F
:104B18002DE9F04184B0044600238DF80F30057A62
:104B280005F07F05052D30D00388072B40F24B8117
:104B3800032D00F0AE80052D00F0AB80012D29D0AB
:104B480003238DF80F3002219DF80F309BB10A2303
:104B58002380238923F07F039BB2238143F007033B
:104B68002381002363819DF80F00984A52F8202082
:104B7800E260974A13802046FEF724FA10B1954B5D
:104B88001C60002004B0BDE8F0810388092BCFD851
:104B98000620F7E7A589052D01D90221D4E7EDB252
:104BA8008D4B20686168A26807C3A2891A80681EB5
:104BB800C6B265BB864B00221A8008E02846FEF77D
:104BC80016FCA31D2A1D23F812000135EDB2042D91
:104BD800F4D9122323809DF80F30002B40F0ED808C
:104BE800238923F07F039BB2238143F002032381AF
:104BF800774A12886281002A00F0E18023F080035E
:104C08009BB2238143F08003238182219CE7704B70
:104C18001988F1B1714B1A880C3A92B204F10C035D
:104C28006F480088ADF80C000139694801800DF122
:104C38000F01009103A93046FEF70EFC684BBDF842
:104C48000C201A80654B1B881B1A9BB2063B9BB233
:104C5800C0E73046FEF7CBFB4FF48053ADF80C307D
:104C68005E4B1988A1F10E0292B204F10E034500C1
:104C7800B2EB400F09DA0C3989B2A81A4D1E284444
:104C880090FBF1F152480180D1E75149002008809A
:104C9800CDE7A089ADF80C00B0F5805F04D20523FC
:104CA8008DF80F3002214FE7FEF7B2FA06460028CA
:104CB8007ED0032D19D0A77BFEF72CFC83789F426A
:104CC80035D911238DF80F3000239DF80F20002AC5
:104CD80077D162812380238923F07F039BB22381CC
:104CE80001351D43258102212EE7FEF713FC0368D9
:104CF800C4F80E30002332461946BDF80C00FEF702
:104D0800FDFA00F10C039BB2344A1288063A93422A
:104D180001D90C23D9E704F1120332460021BDF86A
:104D28000C00FEF7EBFA00F10C039BB2CDE7394615
:104D38003046FEF74BFB036823618388A382A37B7D
:104D4800E3813046FEF7E6FB4388C3F30323083BC1
:104D58009BB2012B0FD877B9224B186859689A680B
:104D6800C4F81600C4F81A10C4F81E201B7B84F877
:104D780022301C23A9E7002332463946BDF80C002F
:104D8800FEF7BCFA00F110039BB2144A1288063AE7
:104D9800934201D9102398E704F1160332463946A5
:104DA800BDF80C00FEF7AAFA00F110039BB28CE7DD
:104DB80008238DF80F300221C6E60221C4E602213D
:104DC800C2E60221C0E60620DCE600BFA8600008B3
:104DD8008C0A002014070020780A0020E609002029
:104DE8008E0A002000000020014B1868704700BFA1
:104DF800C00A0020002831D010B40446194B1B68A3
:104E080063B11A8901898A420ED82BB31A89914253
:104E180026D013D35A68D2B11346F6E7114B18605F
:104E280000206060206006E0002020600D4B1A68BA
:104E3800626014601C605DF8044B70471A68226059
:104E480063601A6802B154601C600020F3E75C607C
:104E5800236000206060EEE70120ECE70120704746
:104E68000120E8E7C00A00200D4B1B6803E00C4B4B
:104E78001A6070475B688BB11A898242FAD1196847
:104E88005A6801B14A6002B1116000211960596085
:104E98001989034B1B681B899942E8D0704700BFEA
:104EA800C00A002010B5064B1C6803E0208964681E
:104EB800FFF7DAFF002CF9D1014B00221A6010BD70
:104EC800C00A002010B50446002100E028342289D9
:104ED8004FF6FF739A4205D02046FFF78BFF014635
:104EE8000028F3D0084610BD08B5064B00221A600A
:104EF8000548FFF7E7FF00B108BD0448FFF7E2FFE8
:104F0800FAE700BFC00A00204C0200201C00002065
:104F180008B51D4A4FF0200CA2F800C000235380AA
:104F28005360936044F21F009081184911615361E6
:104F38009383136282F84030154AA2F800C0538068
:104F4800536093609081116153619383136282F877
:104F58004030104A1370FFF7C7FF88B900230E4A84
:104F680013700E4A13700E4A13800E4A13700E4ABD
:104F780013600E4A13600E4A13600E4A136008BD90
:104F8800FFF790FFEAE700BF340A002020A10700DE
:104F9800F0090020EB090020BC0A00208A0A002042
:104FA800B40A0020BD0A0020B80A0020B00A002078
:104FB800A00A0020A80A002010B582B0224B1C6865
:104FC800002C29D0214B1B780093214B1B68214AC8
:104FD80012682149097821480088A0470446FF281B
:104FE8001AD01F4B1B78022B23D017D8012B04D1C2
:104FF800002211462046FFF721FD0023184A1370AE
:10500800164A1380144A1370124A1360104A136028
:105018000E4A13700C4A136002B010BD033BDBB29A
:10502800012BEAD80A4B1A680A4B1968FFF706FDE4
:10503800E3E70C4B18680028DAD000F0EBFE094BC8
:1050480000221A60D4E700BFA00A00208A0A0020C4
:10505800B00A0020B80A0020BD0A0020B40A0020C7
:10506800BC0A0020A80A002010B5064C204600F013
:10507800FBFA054B1A88054B1988204600F02EFECE
:1050880010BD00BFCC0A00205007002048070020B0
:1050980010B5064C064B1A88064B1988204600F0B6
:1050A80055FD204600F03AFB10BD00BF100B002054
:1050B800520700204A07002008B50A4B5B681BB955
:1050C800094A138801331380084B1B783BB1084BFE
:1050D800B3F90030002B02DD013B054A1380FDF7D0
:1050E8002FFB08BD340A0020580B00203B07002086
:1050F8001C0700201E4B1B7853B91E4B1B783BB175
:105108001D4B9B8B012B04D01C4B1B78012B12D001
:105118007047194A002353609383194A5360938355
:10512800184A1380154B01221A704FF080435A6AAF
:10513800154B1A60704710B44FF080435B6A1149F1
:105148000888114A14681B1B4FF4FA7404FB03F314
:105158000E4C04FB003308484360094843600023B1
:105168000B801360054A13705DF8044B704700BF4D
:10517800370700203C070020340A0020540B002089
:10518800F0090020580B0020C80A002040420F00F8
:1051980008B50A4B00221A80094B1B781BB1094B32
:1051A8005B88032B03D0084B00221A8008BD074BED
:1051B8001B88002BF7D1FFF757FFF4E728070020DB
:1051C80039070020F00900201E07002020070020D2
:1051D80008B5FDF771FBFFF79BFEFBF7F3FDFCF746
:1051E80065F8FCF72BF8FCF733F80020044B18801F
:1051F800044B1860044B1870044B01221A7008BD48
:10520800580B0020C80A0020540B0020550B002022
:1052180008B500F0FDFA08BD394B1B7803B9704793
:1052280070B500F0EFFC044610F4806F18D0354BD1
:105238001B782BB1344B1B7813B1344B00221A80E6
:10524800334B1B8D13B1013B314A1385FFF752FFD6
:10525800304B01221A70304B1B78D3B1FFF718FF7F
:1052680014F4006F02D02D4B1B882BB3284B5B889E
:10527800012B24D02A4B1B782BB12A4B5B88012B9E
:1052880020D0222B1ED000F0BDFC10F4806F1CD162
:1052980070BD254E254D02223188284600F056FC67
:1052A80031881E4B1B88194489B20239022289B2FF
:1052B800284600F04BFCD3E7FFF71CFFD6E7FFF7C3
:1052C800A7FFD7E7FFF7D0FEDDE7114A538D01337B
:1052D8009BB25385134A5385134D144C02222988D7
:1052E800204600F033FC29880C4B1B88194489B2EE
:1052F8000239022289B2204600F028FCC8E700BF24
:105308003C070020360700203707002058070020F8
:10531800340A0020380700203A07002052070020EE
:1053280039070020F00900204A0700205C07002008
:1053380008B5334B00221A80324B1B78002B41D022
:10534800314B1B781BB1314A138801331380304B22
:105358001B882BB32F4A1288934218D22E4B1B88D6
:1053680043B12E49098D2E480089814202D8033164
:105378002A4801852B49098849B143B92A4B1B8D15
:10538800274909898B4202D8033327490B85224BC9
:105398001B8813B9234B1B88ABB901321D4B1A80EC
:1053A800224B1B7813B9224B1B78E3B9FFF730FF68
:1053B800154B1B7833B11F4B1B881BB1134A12883E
:1053C800934213D008BD00F01DFC10F4006F04D107
:1053D800104A138801331380E2E700230D4A138033
:1053E800114A1385DCE7FFF753FEDFE7FFF73CFEC2
:1053F800104B1B88012BE5D1044B00221A80E1E7F2
:105408002407002037070020390700201E07002046
:105418005A0700205807002052070020340A0020AD
:105428001000002050070020F00900203C07002051
:105438003A0700202007002008B51F4B1B78EBB166
:105448001E4B1B7813B11E4A12788AB91D4A12786E
:1054580072B9A3B11C4B4FF40002C3F88020FFF7C8
:10546800D7FE1A4B1B7823BB174B4FF400021A6068
:10547800FDF7ACFAFFF7A0FDFDF7D2F908BD00F083
:105488009DFB10F4806F09D00D4B01221A70104B50
:105498001B78002BDED0FFF7FBFDDBE70D4B1B88ED
:1054A800002BD7D110F4006FD4D0054B01221A700D
:1054B800D0E7FFF7D9FDD7E7550B00203C070020C0
:1054C800380700203707002000E100E039070020F6
:1054D8003A0700205207002070470020704700203C
:1054E8007047002070470020704700207047000078
:1054F8001F4B9A786FF300029A70D2B26FF3410291
:105508009A70D2B26FF382029A70D2B26FF3C3026A
:105518009A70D2B26FF304129A70D2B26FF38612F5
:105528009A70D2B26FF345129A70D2B26FF3C71263
:105538009A70104B00201860586018725872987250
:10554800D872187358739873D873187458749874F9
:10555800094B18605860187258729872D87218738C
:1055680058739873D873187458749874704700BF38
:105578006C050020D8060020000700202DE9F04F18
:1055880083B0009001910026B04614E0D5F8189039
:10559800601C2946C0B2FDF7BFFFC0F3CF0019F861
:1055A800003033449EB20134A4B2BC42EED308F1B9
:1055B80001081FFA88F82A4B1B8843450BD9284B4A
:1055C80003EB48035888FDF723FE0546C0B18369FD
:1055D8001F880024E9E74FF0000BF31DC3F3CF0841
:1055E800BBF1000F34D00027FB1DC3F3CF03009A93
:1055F8001380019BA3F80080584603B0BDE8F08FE4
:1056080000264FF0250BE8E7B569601C3146C0B2AB
:10561800FDF782FFC0F3CF002B5C1F44BFB20134FB
:10562800A4B24C45F0D30AF1010A1FFA8AFA0D4BCD
:105638001B885345D8D90B4B03EB4A035888FDF711
:10564800E7FD064638B18369B3F800905C46E8E7A1
:105658005F46DA46EBE75F464FF0240BC4E700BF2E
:10566800380600203C060020002205E0284B5B8815
:1056780020F8023B013292B2264B1B88934245D94F
:10568800244B03EB42035B88B3F5D05FEED041F6C1
:1056980002218B42EED1204B5988018099884180A4
:1056A800D98881801989C180598901819989418165
:1056B800D9898181198AC181598A0182998A41824D
:1056C800D98A8182198BC182598B0183998B418335
:1056D800D98B8183198CC183598C0184998C41841D
:1056E800D98C8184198DC184598D0185998D418505
:1056F800D98D8185198EC185598E0186998E4186ED
:10570800D98E81861B8FC3863830B3E7704700BFB8
:10571800400500203C06002080040020002301E012
:1057280001339BB2384A12889A426CD9364A02EB46
:105738004302518841F201629142F1D10188334A12
:105748005180B0F802C0090A41EA0C2191804188D1
:10575800B0F804C0090A41EA0C21D1808188B0F868
:1057680006C0090A41EA0C211181C188B0F808C0B5
:10577800090A41EA0C2151810189B0F80AC0090AD5
:1057880041EA0C2191814189B0F80CC0090A41EA2B
:105798000C21D1818189B0F80EC0090A41EA0C2197
:1057A8001182C189B0F810C0090A41EA0C2151825E
:1057B800018AB0F812C0090A41EA0C219182418A93
:1057C800B0F814C0090A41EA0C21D182818AB0F8E4
:1057D80016C0090A41EA0C211183C18AB0F818C021
:1057E800090A41EA0C215183018BB0F81AC0090A51
:1057F80041EA0C219183418BB0F81CC0090A41EAA7
:105808000C21D1838CE77047380600206C050020F6
:1058180010B5534CA38853490B60A3794B60E379C7
:105828000B72237A4B72637A8B72A37ACB72E37A08
:105838000B73237B4B73637B8B73A37BCB73E37BF0
:105848000B74237C4B74637C8B744748FAF740FED7
:10585800638A46490B60237D4B60637D0B72A37D91
:105868004B72E37D8B72237ECB72637E0B73A37EB8
:105878004B73E37E8B73237FCB73637F0B74A37FA0
:105888004B74E37F8B743A48FAF722FE394B9A78C7
:105898006FF300029A70D2B26FF341029A70D2B2DB
:1058A8006FF382029A70D2B26FF3C3029A70D2B2C7
:1058B8006FF304129A70D2B26FF345129A70D2B293
:1058C8006FF386129A70D2B26FF3C7129A702A4B8E
:1058D80000209880294A1168D98051681972117A74
:1058E8005972517A9972917AD972D17A1973117B56
:1058F8005973517B9973917BD973D17B1974117C3E
:105908005974517C9974927CDA741D4A1168998291
:1059180051689975117AD975517A1976917A5976AB
:10592800D17A9976117BD976517B1977917B597702
:10593800D17B9977117CD977517C83F82010927CA0
:1059480083F82120DA78C2F3C01181F0010161F3F4
:10595800C712DA70D2B260F38612DA7010BD00BFD7
:105968006C050020D80600200064004000070020D5
:10597800006800404005002080040020C406002084
:10598800EC06002010B59DF8084034BB21B9154A33
:1059980012881A80084610BD06290CD0072913D092
:1059A80009291CD100221A700F4AD278C2F3C012FA
:1059B8001A702046EFE70AB92046ECE7002118469E
:1059C80000F03EFA2046E6E700221A70064AD2782E
:1059D800C2F380121A702046DDE70520DBE71120AC
:1059E800D9E700BF7C0400208004002008B500F03F
:1059F80033F9FFF7EDFB064B01221A70FFF71CFD88
:105A0800034B1B78012BF9D000F080F8002008BD6B
:105A1800560B002030B583B041EAC00005B284B20D
:105A28004FF480710748FAF7C2FE200AFBF76AFABA
:105A38008DF80700E8B2FBF765FA8DF8070003B0A8
:105A480030BD00BF0004024030B583B041EAC00059
:105A580005B284B24FF480710748FAF7A8FE200A0D
:105A6800FBF750FA8DF80700E8B2FBF74BFA8DF810
:105A7800070003B030BD00BF00040240F0B583B09A
:105A880001210620FAF7B4FE47F603030093012626
:105A98008DF8046000258DF8065002248DF8054025
:105AA8008DF80750174F69463846FAF72BFE302312
:105AB80000938DF804608DF806508DF805408DF838
:105AC8000750114E69463046FAF71CFE4FF4004362
